{
  "contractName": "MultiSigBioFund",
  "abi": [
    {
      "inputs": [
        {
          "internalType": "address[]",
          "name": "_owners",
          "type": "address[]"
        },
        {
          "internalType": "uint256",
          "name": "_required",
          "type": "uint256"
        }
      ],
      "stateMutability": "nonpayable",
      "type": "constructor"
    },
    {
      "anonymous": false,
      "inputs": [
        {
          "indexed": true,
          "internalType": "address",
          "name": "sender",
          "type": "address"
        },
        {
          "indexed": true,
          "internalType": "uint256",
          "name": "transactionId",
          "type": "uint256"
        }
      ],
      "name": "Confirmation",
      "type": "event"
    },
    {
      "anonymous": false,
      "inputs": [
        {
          "indexed": true,
          "internalType": "address",
          "name": "sender",
          "type": "address"
        },
        {
          "indexed": false,
          "internalType": "uint256",
          "name": "value",
          "type": "uint256"
        }
      ],
      "name": "Deposit",
      "type": "event"
    },
    {
      "anonymous": false,
      "inputs": [
        {
          "indexed": true,
          "internalType": "uint256",
          "name": "transactionId",
          "type": "uint256"
        }
      ],
      "name": "Execution",
      "type": "event"
    },
    {
      "anonymous": false,
      "inputs": [
        {
          "indexed": true,
          "internalType": "uint256",
          "name": "transactionId",
          "type": "uint256"
        }
      ],
      "name": "ExecutionFailure",
      "type": "event"
    },
    {
      "anonymous": false,
      "inputs": [
        {
          "indexed": true,
          "internalType": "uint256",
          "name": "transactionId",
          "type": "uint256"
        }
      ],
      "name": "Submission",
      "type": "event"
    },
    {
      "stateMutability": "payable",
      "type": "fallback"
    },
    {
      "inputs": [
        {
          "internalType": "uint256",
          "name": "",
          "type": "uint256"
        },
        {
          "internalType": "address",
          "name": "",
          "type": "address"
        }
      ],
      "name": "confirmations",
      "outputs": [
        {
          "internalType": "bool",
          "name": "",
          "type": "bool"
        }
      ],
      "stateMutability": "view",
      "type": "function"
    },
    {
      "inputs": [
        {
          "internalType": "address",
          "name": "",
          "type": "address"
        }
      ],
      "name": "isOwner",
      "outputs": [
        {
          "internalType": "bool",
          "name": "",
          "type": "bool"
        }
      ],
      "stateMutability": "view",
      "type": "function"
    },
    {
      "inputs": [
        {
          "internalType": "uint256",
          "name": "",
          "type": "uint256"
        }
      ],
      "name": "owners",
      "outputs": [
        {
          "internalType": "address",
          "name": "",
          "type": "address"
        }
      ],
      "stateMutability": "view",
      "type": "function"
    },
    {
      "inputs": [],
      "name": "required",
      "outputs": [
        {
          "internalType": "uint256",
          "name": "",
          "type": "uint256"
        }
      ],
      "stateMutability": "view",
      "type": "function"
    },
    {
      "inputs": [],
      "name": "transactionCount",
      "outputs": [
        {
          "internalType": "uint256",
          "name": "",
          "type": "uint256"
        }
      ],
      "stateMutability": "view",
      "type": "function"
    },
    {
      "inputs": [
        {
          "internalType": "uint256",
          "name": "",
          "type": "uint256"
        }
      ],
      "name": "transactions",
      "outputs": [
        {
          "internalType": "bool",
          "name": "executed",
          "type": "bool"
        },
        {
          "internalType": "address payable",
          "name": "destination",
          "type": "address"
        },
        {
          "internalType": "uint256",
          "name": "value",
          "type": "uint256"
        },
        {
          "internalType": "string",
          "name": "data",
          "type": "string"
        }
      ],
      "stateMutability": "view",
      "type": "function"
    },
    {
      "inputs": [
        {
          "internalType": "address payable",
          "name": "destination",
          "type": "address"
        },
        {
          "internalType": "uint256",
          "name": "value",
          "type": "uint256"
        },
        {
          "internalType": "string",
          "name": "data",
          "type": "string"
        }
      ],
      "name": "submitTransaction",
      "outputs": [
        {
          "internalType": "uint256",
          "name": "transactionId",
          "type": "uint256"
        }
      ],
      "stateMutability": "nonpayable",
      "type": "function"
    },
    {
      "inputs": [
        {
          "internalType": "uint256",
          "name": "transactionId",
          "type": "uint256"
        }
      ],
      "name": "confirmTransaction",
      "outputs": [],
      "stateMutability": "nonpayable",
      "type": "function"
    },
    {
      "inputs": [
        {
          "internalType": "uint256",
          "name": "transactionId",
          "type": "uint256"
        }
      ],
      "name": "revokeConfirmation",
      "outputs": [],
      "stateMutability": "nonpayable",
      "type": "function"
    },
    {
      "inputs": [
        {
          "internalType": "uint256",
          "name": "transactionId",
          "type": "uint256"
        }
      ],
      "name": "executeTransaction",
      "outputs": [],
      "stateMutability": "nonpayable",
      "type": "function"
    },
    {
      "inputs": [
        {
          "internalType": "uint256",
          "name": "transactionId",
          "type": "uint256"
        }
      ],
      "name": "isConfirmed",
      "outputs": [
        {
          "internalType": "bool",
          "name": "",
          "type": "bool"
        }
      ],
      "stateMutability": "view",
      "type": "function"
    },
    {
      "inputs": [
        {
          "internalType": "uint256",
          "name": "transactionId",
          "type": "uint256"
        }
      ],
      "name": "getTransactionDestination",
      "outputs": [
        {
          "internalType": "address payable",
          "name": "destination",
          "type": "address"
        }
      ],
      "stateMutability": "view",
      "type": "function"
    },
    {
      "inputs": [
        {
          "internalType": "uint256",
          "name": "id",
          "type": "uint256"
        }
      ],
      "name": "getTransactionValue",
      "outputs": [
        {
          "internalType": "uint256",
          "name": "_value",
          "type": "uint256"
        }
      ],
      "stateMutability": "view",
      "type": "function"
    },
    {
      "inputs": [
        {
          "internalType": "uint256",
          "name": "id",
          "type": "uint256"
        }
      ],
      "name": "isTransactionExecuted",
      "outputs": [
        {
          "internalType": "bool",
          "name": "executed",
          "type": "bool"
        }
      ],
      "stateMutability": "view",
      "type": "function"
    },
    {
      "inputs": [
        {
          "internalType": "uint256",
          "name": "id",
          "type": "uint256"
        }
      ],
      "name": "hasUserConfirmed",
      "outputs": [
        {
          "internalType": "bool",
          "name": "",
          "type": "bool"
        }
      ],
      "stateMutability": "view",
      "type": "function"
    }
  ],
  "bytecode": "0x608060405260006002553480156200001657600080fd5b506040516200137238038062001372833981810160405260408110156200003c57600080fd5b81019080805160405193929190846401000000008211156200005d57600080fd5b838201915060208201858111156200007457600080fd5b82518660208202830111640100000000821117156200009257600080fd5b8083526020830192505050908051906020019060200280838360005b83811015620000cb578082015181840152602081019050620000ae565b505050509050016040526020018051906020019092919050505081518181811180620000f75750600081145b80620001035750600082145b156200010e57600080fd5b60005b845181101562000195576001600360008784815181106200012e57fe5b602002602001015173ffffffffffffffffffffffffffffffffffffffff1673ffffffffffffffffffffffffffffffffffffffff16815260200190815260200160002060006101000a81548160ff021916908315150217905550808060010191505062000111565b508360009080519060200190620001ae929190620001c0565b5082600181905550505050506200028c565b8280548282559060005260206000209081019282156200023c579160200282015b828111156200023b5782518260006101000a81548173ffffffffffffffffffffffffffffffffffffffff021916908373ffffffffffffffffffffffffffffffffffffffff16021790555091602001919060010190620001e1565b5b5090506200024b91906200024f565b5090565b5b808211156200028857600081816101000a81549073ffffffffffffffffffffffffffffffffffffffff02191690555060010162000250565b5090565b6110d6806200029c6000396000f3fe6080604052600436106100ec5760003560e01c806381fed0ec1161008a578063c01a8c8411610059578063c01a8c8414610609578063dc8452cd14610644578063ee22610b1461066f578063fd6adb20146106aa576100ed565b806381fed0ec1461045b5780639ace38c2146104ac5780639d29a94f1461058d578063b77bf600146105de576100ed565b806320ea8d86116100c657806320ea8d86146102f75780632f54bf6e146103325780633411c81c14610399578063784547a71461040a576100ed565b8063025e7c271461013d57806303d79d28146101a257806316f105dd146102a8576100ed565b5b3373ffffffffffffffffffffffffffffffffffffffff167fe1fffcc4923d04b559f4d29a8bfc6cda04eb5b0d3c460751c2402c5c5cc9109c346040518082815260200191505060405180910390a2005b34801561014957600080fd5b506101766004803603602081101561016057600080fd5b810190808035906020019092919050505061070f565b604051808273ffffffffffffffffffffffffffffffffffffffff16815260200191505060405180910390f35b3480156101ae57600080fd5b50610292600480360360608110156101c557600080fd5b81019080803573ffffffffffffffffffffffffffffffffffffffff169060200190929190803590602001909291908035906020019064010000000081111561020c57600080fd5b82018360208201111561021e57600080fd5b8035906020019184600183028401116401000000008311171561024057600080fd5b91908080601f016020809104026020016040519081016040528093929190818152602001838380828437600081840152601f19601f82011690508083019250505050505050919291929050505061074b565b6040518082815260200191505060405180910390f35b3480156102b457600080fd5b506102e1600480360360208110156102cb57600080fd5b810190808035906020019092919050505061080f565b6040518082815260200191505060405180910390f35b34801561030357600080fd5b506103306004803603602081101561031a57600080fd5b810190808035906020019092919050505061082f565b005b34801561033e57600080fd5b506103816004803603602081101561035557600080fd5b81019080803573ffffffffffffffffffffffffffffffffffffffff169060200190929190505050610995565b60405180821515815260200191505060405180910390f35b3480156103a557600080fd5b506103f2600480360360408110156103bc57600080fd5b8101908080359060200190929190803573ffffffffffffffffffffffffffffffffffffffff1690602001909291905050506109b5565b60405180821515815260200191505060405180910390f35b34801561041657600080fd5b506104436004803603602081101561042d57600080fd5b81019080803590602001909291905050506109e4565b60405180821515815260200191505060405180910390f35b34801561046757600080fd5b506104946004803603602081101561047e57600080fd5b8101908080359060200190929190505050610ac5565b60405180821515815260200191505060405180910390f35b3480156104b857600080fd5b506104e5600480360360208110156104cf57600080fd5b8101908080359060200190929190505050610af2565b6040518085151581526020018473ffffffffffffffffffffffffffffffffffffffff16815260200183815260200180602001828103825283818151815260200191508051906020019080838360005b8381101561054f578082015181840152602081019050610534565b50505050905090810190601f16801561057c5780820380516001836020036101000a031916815260200191505b509550505050505060405180910390f35b34801561059957600080fd5b506105c6600480360360208110156105b057600080fd5b8101908080359060200190929190505050610be7565b60405180821515815260200191505060405180910390f35b3480156105ea57600080fd5b506105f3610c4e565b6040518082815260200191505060405180910390f35b34801561061557600080fd5b506106426004803603602081101561062c57600080fd5b8101908080359060200190929190505050610c54565b005b34801561065057600080fd5b50610659610d90565b6040518082815260200191505060405180910390f35b34801561067b57600080fd5b506106a86004803603602081101561069257600080fd5b8101908080359060200190929190505050610d96565b005b3480156106b657600080fd5b506106e3600480360360208110156106cd57600080fd5b8101908080359060200190929190505050610eb2565b604051808273ffffffffffffffffffffffffffffffffffffffff16815260200191505060405180910390f35b6000818154811061071c57fe5b906000526020600020016000915054906101000a900473ffffffffffffffffffffffffffffffffffffffff1681565b6000600360003373ffffffffffffffffffffffffffffffffffffffff1673ffffffffffffffffffffffffffffffffffffffff16815260200190815260200160002060009054906101000a900460ff166107a357600080fd5b600073ffffffffffffffffffffffffffffffffffffffff168473ffffffffffffffffffffffffffffffffffffffff1614156107dd57600080fd5b600254905060016002600082825401925050819055506107ff81858585610ef2565b61080881610c54565b9392505050565b600060046000838152602001908152602001600020600101549050919050565b600360003373ffffffffffffffffffffffffffffffffffffffff1673ffffffffffffffffffffffffffffffffffffffff16815260200190815260200160002060009054906101000a900460ff1661088557600080fd5b80600015156004600083815260200190815260200160002060000160009054906101000a900460ff161515146108ba57600080fd5b600115156005600084815260200190815260200160002060003373ffffffffffffffffffffffffffffffffffffffff1673ffffffffffffffffffffffffffffffffffffffff16815260200190815260200160002060009054906101000a900460ff1615151461092857600080fd5b60006005600084815260200190815260200160002060003373ffffffffffffffffffffffffffffffffffffffff1673ffffffffffffffffffffffffffffffffffffffff16815260200190815260200160002060006101000a81548160ff0219169083151502179055505050565b60036020528060005260406000206000915054906101000a900460ff1681565b60056020528160005260406000206020528060005260406000206000915091509054906101000a900460ff1681565b6000806000905060005b600080549050811015610abd57600560008581526020019081526020016000206000808381548110610a1c57fe5b9060005260206000200160009054906101000a900473ffffffffffffffffffffffffffffffffffffffff1673ffffffffffffffffffffffffffffffffffffffff1673ffffffffffffffffffffffffffffffffffffffff16815260200190815260200160002060009054906101000a900460ff1615610a9b576001820191505b600154821415610ab057600192505050610ac0565b80806001019150506109ee565b50505b919050565b60006004600083815260200190815260200160002060000160009054906101000a900460ff169050919050565b60046020528060005260406000206000915090508060000160009054906101000a900460ff16908060000160019054906101000a900473ffffffffffffffffffffffffffffffffffffffff1690806001015490806002018054600181600116156101000203166002900480601f016020809104026020016040519081016040528092919081815260200182805460018160011615610100020316600290048015610bdd5780601f10610bb257610100808354040283529160200191610bdd565b820191906000526020600020905b815481529060010190602001808311610bc057829003601f168201915b5050505050905084565b60006005600083815260200190815260200160002060003373ffffffffffffffffffffffffffffffffffffffff1673ffffffffffffffffffffffffffffffffffffffff16815260200190815260200160002060009054906101000a900460ff169050919050565b60025481565b600360003373ffffffffffffffffffffffffffffffffffffffff1673ffffffffffffffffffffffffffffffffffffffff16815260200190815260200160002060009054906101000a900460ff16610caa57600080fd5b80600015156004600083815260200190815260200160002060000160009054906101000a900460ff16151514610cdf57600080fd5b60016005600084815260200190815260200160002060003373ffffffffffffffffffffffffffffffffffffffff1673ffffffffffffffffffffffffffffffffffffffff16815260200190815260200160002060006101000a81548160ff021916908315150217905550813373ffffffffffffffffffffffffffffffffffffffff167f4a504a94899432a9846e1aa406dceb1bcfd538bb839071d49d1e5e23f5be30ef60405160405180910390a35050565b60015481565b80600015156004600083815260200190815260200160002060000160009054906101000a900460ff16151514610dcb57600080fd5b610dd4826109e4565b610ddd57600080fd5b600060046000848152602001908152602001600020905060018160000160006101000a81548160ff0219169083151502179055508060000160019054906101000a900473ffffffffffffffffffffffffffffffffffffffff1673ffffffffffffffffffffffffffffffffffffffff166108fc82600101549081150290604051600060405180830381858888f19350505050158015610e7f573d6000803e3d6000fd5b50827f33e13ecb54c3076d8e8bb8c2881800a4d972b792045ffae98fdf46df365fed7560405160405180910390a2505050565b60006004600083815260200190815260200160002060000160019054906101000a900473ffffffffffffffffffffffffffffffffffffffff169050919050565b60405180608001604052806000151581526020018473ffffffffffffffffffffffffffffffffffffffff168152602001838152602001828152506004600086815260200190815260200160002060008201518160000160006101000a81548160ff02191690831515021790555060208201518160000160016101000a81548173ffffffffffffffffffffffffffffffffffffffff021916908373ffffffffffffffffffffffffffffffffffffffff160217905550604082015181600101556060820151816002019080519060200190610fcc929190611003565b50905050837fc0ba8fe4b176c1714197d43b9cc6bcf797a4a7461c5fe8d0ef6e184ae7601e5160405160405180910390a250505050565b828054600181600116156101000203166002900490600052602060002090601f016020900481019282601f1061104457805160ff1916838001178555611072565b82800160010185558215611072579182015b82811115611071578251825591602001919060010190611056565b5b50905061107f9190611083565b5090565b5b8082111561109c576000816000905550600101611084565b509056fea2646970667358221220a5c9330397273eb88234864b6ce877c3c2d827730cddb369995b45f5c10f33ed64736f6c63430007000033",
  "immutableReferences": {},
  "source": "// SPDX-License-Identifier: MIT\npragma solidity ^0.7.0;\n\n/// @title Multi Signature Biodiversity Fund\n/// @notice Based on Consensys' Bootcamp Exerise MultiSigWallet. A MultiSigWallet to manage funds from sales of biodiversity products.\n\ncontract MultiSigBioFund {\n//there's a lot to improve here, but I'll do it later.\n\n    address[] public owners;\n    uint public required;\n    uint public transactionCount = 0;    \n\n    mapping (address => bool) public isOwner;\n    mapping (uint => Transaction) public transactions;\n    mapping (uint => mapping (address => bool)) public confirmations;\n\n    struct Transaction {\n      bool executed;\n      address payable destination;\n      uint value;\n      string data;\n    }\n    \n    event Deposit(address indexed sender, uint value);\n    event Submission(uint indexed transactionId);\n    event Confirmation(address indexed sender, uint indexed transactionId);\n    event Execution(uint indexed transactionId);\n    event ExecutionFailure(uint indexed transactionId);\n\n    /// @dev Fallback function allows to deposit ether.\n    fallback() external payable {\n        emit Deposit(msg.sender, msg.value);\n    }\n    \n    modifier validRequirement(uint ownerCount, uint _required) {\n        if (   _required > ownerCount || _required == 0 || ownerCount == 0)\n            revert();\n        _;\n    }\n    modifier onlyOwners() { require(isOwner[msg.sender]); _; }\n    modifier notExecuted(uint transactionId) { require(transactions[transactionId].executed == false); _; }\n\n    /// @dev Contract constructor sets initial owners and required number of confirmations.\n    /// @param _owners List of initial owners.\n    /// @param _required Number of required confirmations.\n    constructor(address[] memory _owners, uint _required) public validRequirement(_owners.length, _required) {\n        for (uint i=0; i<_owners.length; i++) {\n            isOwner[_owners[i]] = true;\n        }\n        owners = _owners;\n        required = _required;\n    }\n\n    /// @dev Allows an owner to submit and confirm a transaction.\n    /// @param destination Transaction target address.\n    /// @param value Transaction ether value.\n    /// @param data Transaction data payload.\n    /// @return transactionId Returns transaction ID.\n    function submitTransaction(address payable destination, uint value, string memory data) public onlyOwners returns (uint transactionId)  {\n        require(destination != address(0));\n        transactionId = transactionCount;\n        transactionCount += 1;\n        _addTransaction(transactionId, destination, value, data);\n        confirmTransaction(transactionId);\n    }\n\n    /// @dev Allows an owner to confirm a transaction.\n    /// @param transactionId Transaction ID.\n    function confirmTransaction(uint transactionId) public onlyOwners notExecuted(transactionId) {\n        confirmations[transactionId][msg.sender] = true;\n        emit Confirmation(msg.sender, transactionId);\n    }\n\n    /// @dev Allows an owner to revoke a confirmation for a transaction.\n    /// @param transactionId Transaction ID.\n    function revokeConfirmation(uint transactionId) public onlyOwners notExecuted(transactionId) {\n        require(confirmations[transactionId][msg.sender] == true);  \n        confirmations[transactionId][msg.sender] = false; \n    }\n\n    /// @dev Allows anyone to execute a confirmed transaction.\n    /// @param transactionId Transaction ID.\n    function executeTransaction(uint transactionId) public notExecuted(transactionId) {\n        require(isConfirmed(transactionId));\n        Transaction storage t = transactions[transactionId]; \n        t.executed = true;\n        t.destination.transfer(t.value);\n        emit Execution(transactionId);\n        }\n\n    /// @dev Adds a new transaction to the transaction mapping, if transaction does not exist yet.\n    /// @param _transactionId Transaction Id\n    /// @param _destination Transaction target address.\n    /// @param _value Transaction ether value.\n    /// @param _data Transaction data payload.\n    function _addTransaction(uint _transactionId, address payable _destination, uint _value, string memory _data) internal {\n        transactions[_transactionId] = Transaction(false, _destination, _value, _data);\n        emit Submission(_transactionId);\n    }\n    \n    /// @dev Returns the confirmation status of a transaction.\n    /// @param transactionId Transaction ID.\n    /// @return Confirmation status.\n    function isConfirmed(uint transactionId) public view returns (bool) {\n        uint count = 0;\n        for (uint i=0; i<owners.length; i++) {\n            if (confirmations[transactionId][owners[i]])\n                count += 1;\n            if (count == required)\n                return true;\n        }\n    }\n\n    /// @notice Returns the destination of a proposed transaction\n    /// @param transactionId The Id of the transaction\n    /// @return destination returns the destination address of the transaction\n    function getTransactionDestination (uint transactionId) external view returns (address payable destination) {\n    return transactions[transactionId].destination;\n  }\n\n    /// @notice Returns the value of a proposed transaction\n    /// @param id The Id of the transaction\n    /// @return _value returns the value of the transaction\n    function getTransactionValue (uint id) external view returns (uint _value) {\n    return transactions[id].value;\n  }\n\n    /// @notice Returns if a proposed transaction is executed\n    /// @param id The Id of the transaction\n    /// @return executed returns if transaction is executed\n    function isTransactionExecuted (uint id) external view returns (bool executed) {\n    return transactions[id].executed;\n  }\n\n    /// @notice Returns if msg.sender has confirmed a proposed transaction\n    /// @param id The Id of the transaction\n    /// @return returns if transaction is executed\n    function hasUserConfirmed (uint id) external view returns (bool) {\n    return confirmations[id][msg.sender];\n  }\n}",
  "sourcePath": "/Users/irmenedocteur/Downloads/consensys-bootcamp-final-project-main2/contracts/MultiSigBioFund.sol",
  "compiler": {
    "name": "solc",
    "version": "0.7.0+commit.9e61f92b.Emscripten.clang"
  },
  "schemaVersion": "3.3.2",
  "updatedAt": "2020-12-31T04:04:27.115Z",
  "devdoc": {
    "kind": "dev",
    "methods": {
      "confirmTransaction(uint256)": {
        "details": "Allows an owner to confirm a transaction.",
        "params": {
          "transactionId": "Transaction ID."
        }
      },
      "constructor": {
        "details": "Contract constructor sets initial owners and required number of confirmations.",
        "params": {
          "_owners": "List of initial owners.",
          "_required": "Number of required confirmations."
        }
      },
      "executeTransaction(uint256)": {
        "details": "Allows anyone to execute a confirmed transaction.",
        "params": {
          "transactionId": "Transaction ID."
        }
      },
      "getTransactionDestination(uint256)": {
        "params": {
          "transactionId": "The Id of the transaction"
        },
        "returns": {
          "destination": "returns the destination address of the transaction"
        }
      },
      "getTransactionValue(uint256)": {
        "params": {
          "id": "The Id of the transaction"
        },
        "returns": {
          "_value": "returns the value of the transaction"
        }
      },
      "hasUserConfirmed(uint256)": {
        "params": {
          "id": "The Id of the transaction"
        },
        "returns": {
          "_0": "returns if transaction is executed"
        }
      },
      "isConfirmed(uint256)": {
        "details": "Returns the confirmation status of a transaction.",
        "params": {
          "transactionId": "Transaction ID."
        },
        "returns": {
          "_0": "Confirmation status."
        }
      },
      "isTransactionExecuted(uint256)": {
        "params": {
          "id": "The Id of the transaction"
        },
        "returns": {
          "executed": "returns if transaction is executed"
        }
      },
      "revokeConfirmation(uint256)": {
        "details": "Allows an owner to revoke a confirmation for a transaction.",
        "params": {
          "transactionId": "Transaction ID."
        }
      },
      "submitTransaction(address,uint256,string)": {
        "details": "Allows an owner to submit and confirm a transaction.",
        "params": {
          "data": "Transaction data payload.",
          "destination": "Transaction target address.",
          "value": "Transaction ether value."
        },
        "returns": {
          "transactionId": "Returns transaction ID."
        }
      }
    },
    "title": "Multi Signature Biodiversity Fund",
    "version": 1
  },
  "userdoc": {
    "kind": "user",
    "methods": {
      "getTransactionDestination(uint256)": {
        "notice": "Returns the destination of a proposed transaction"
      },
      "getTransactionValue(uint256)": {
        "notice": "Returns the value of a proposed transaction"
      },
      "hasUserConfirmed(uint256)": {
        "notice": "Returns if msg.sender has confirmed a proposed transaction"
      },
      "isTransactionExecuted(uint256)": {
        "notice": "Returns if a proposed transaction is executed"
      }
    },
    "notice": "Based on Consensys' Bootcamp Exerise MultiSigWallet. A MultiSigWallet to manage funds from sales of biodiversity products.",
    "version": 1
  }
}