{
  "contractName": "MusicToken",
  "abi": [
    {
      "inputs": [],
      "stateMutability": "nonpayable",
      "type": "constructor"
    },
    {
      "anonymous": false,
      "inputs": [
        {
          "indexed": true,
          "internalType": "address",
          "name": "owner",
          "type": "address"
        },
        {
          "indexed": true,
          "internalType": "address",
          "name": "approved",
          "type": "address"
        },
        {
          "indexed": true,
          "internalType": "uint256",
          "name": "tokenId",
          "type": "uint256"
        }
      ],
      "name": "Approval",
      "type": "event"
    },
    {
      "anonymous": false,
      "inputs": [
        {
          "indexed": true,
          "internalType": "address",
          "name": "owner",
          "type": "address"
        },
        {
          "indexed": true,
          "internalType": "address",
          "name": "operator",
          "type": "address"
        },
        {
          "indexed": false,
          "internalType": "bool",
          "name": "approved",
          "type": "bool"
        }
      ],
      "name": "ApprovalForAll",
      "type": "event"
    },
    {
      "anonymous": false,
      "inputs": [
        {
          "indexed": true,
          "internalType": "address",
          "name": "previousOwner",
          "type": "address"
        },
        {
          "indexed": true,
          "internalType": "address",
          "name": "newOwner",
          "type": "address"
        }
      ],
      "name": "OwnershipTransferred",
      "type": "event"
    },
    {
      "anonymous": false,
      "inputs": [
        {
          "indexed": true,
          "internalType": "address",
          "name": "from",
          "type": "address"
        },
        {
          "indexed": true,
          "internalType": "address",
          "name": "to",
          "type": "address"
        },
        {
          "indexed": true,
          "internalType": "uint256",
          "name": "tokenId",
          "type": "uint256"
        }
      ],
      "name": "Transfer",
      "type": "event"
    },
    {
      "inputs": [
        {
          "internalType": "address",
          "name": "to",
          "type": "address"
        },
        {
          "internalType": "uint256",
          "name": "tokenId",
          "type": "uint256"
        }
      ],
      "name": "approve",
      "outputs": [],
      "stateMutability": "nonpayable",
      "type": "function"
    },
    {
      "inputs": [
        {
          "internalType": "address",
          "name": "owner",
          "type": "address"
        }
      ],
      "name": "balanceOf",
      "outputs": [
        {
          "internalType": "uint256",
          "name": "",
          "type": "uint256"
        }
      ],
      "stateMutability": "view",
      "type": "function",
      "constant": true
    },
    {
      "inputs": [],
      "name": "baseURI",
      "outputs": [
        {
          "internalType": "string",
          "name": "",
          "type": "string"
        }
      ],
      "stateMutability": "view",
      "type": "function",
      "constant": true
    },
    {
      "inputs": [
        {
          "internalType": "uint256",
          "name": "tokenId",
          "type": "uint256"
        }
      ],
      "name": "getApproved",
      "outputs": [
        {
          "internalType": "address",
          "name": "",
          "type": "address"
        }
      ],
      "stateMutability": "view",
      "type": "function",
      "constant": true
    },
    {
      "inputs": [
        {
          "internalType": "address",
          "name": "owner",
          "type": "address"
        },
        {
          "internalType": "address",
          "name": "operator",
          "type": "address"
        }
      ],
      "name": "isApprovedForAll",
      "outputs": [
        {
          "internalType": "bool",
          "name": "",
          "type": "bool"
        }
      ],
      "stateMutability": "view",
      "type": "function",
      "constant": true
    },
    {
      "inputs": [],
      "name": "name",
      "outputs": [
        {
          "internalType": "string",
          "name": "",
          "type": "string"
        }
      ],
      "stateMutability": "view",
      "type": "function",
      "constant": true
    },
    {
      "inputs": [],
      "name": "owner",
      "outputs": [
        {
          "internalType": "address",
          "name": "",
          "type": "address"
        }
      ],
      "stateMutability": "view",
      "type": "function",
      "constant": true
    },
    {
      "inputs": [
        {
          "internalType": "uint256",
          "name": "tokenId",
          "type": "uint256"
        }
      ],
      "name": "ownerOf",
      "outputs": [
        {
          "internalType": "address",
          "name": "",
          "type": "address"
        }
      ],
      "stateMutability": "view",
      "type": "function",
      "constant": true
    },
    {
      "inputs": [],
      "name": "renounceOwnership",
      "outputs": [],
      "stateMutability": "nonpayable",
      "type": "function"
    },
    {
      "inputs": [
        {
          "internalType": "address",
          "name": "from",
          "type": "address"
        },
        {
          "internalType": "address",
          "name": "to",
          "type": "address"
        },
        {
          "internalType": "uint256",
          "name": "tokenId",
          "type": "uint256"
        }
      ],
      "name": "safeTransferFrom",
      "outputs": [],
      "stateMutability": "nonpayable",
      "type": "function"
    },
    {
      "inputs": [
        {
          "internalType": "address",
          "name": "from",
          "type": "address"
        },
        {
          "internalType": "address",
          "name": "to",
          "type": "address"
        },
        {
          "internalType": "uint256",
          "name": "tokenId",
          "type": "uint256"
        },
        {
          "internalType": "bytes",
          "name": "_data",
          "type": "bytes"
        }
      ],
      "name": "safeTransferFrom",
      "outputs": [],
      "stateMutability": "nonpayable",
      "type": "function"
    },
    {
      "inputs": [
        {
          "internalType": "address",
          "name": "operator",
          "type": "address"
        },
        {
          "internalType": "bool",
          "name": "approved",
          "type": "bool"
        }
      ],
      "name": "setApprovalForAll",
      "outputs": [],
      "stateMutability": "nonpayable",
      "type": "function"
    },
    {
      "inputs": [
        {
          "internalType": "bytes4",
          "name": "interfaceId",
          "type": "bytes4"
        }
      ],
      "name": "supportsInterface",
      "outputs": [
        {
          "internalType": "bool",
          "name": "",
          "type": "bool"
        }
      ],
      "stateMutability": "view",
      "type": "function",
      "constant": true
    },
    {
      "inputs": [],
      "name": "symbol",
      "outputs": [
        {
          "internalType": "string",
          "name": "",
          "type": "string"
        }
      ],
      "stateMutability": "view",
      "type": "function",
      "constant": true
    },
    {
      "inputs": [
        {
          "internalType": "uint256",
          "name": "index",
          "type": "uint256"
        }
      ],
      "name": "tokenByIndex",
      "outputs": [
        {
          "internalType": "uint256",
          "name": "",
          "type": "uint256"
        }
      ],
      "stateMutability": "view",
      "type": "function",
      "constant": true
    },
    {
      "inputs": [
        {
          "internalType": "address",
          "name": "owner",
          "type": "address"
        },
        {
          "internalType": "uint256",
          "name": "index",
          "type": "uint256"
        }
      ],
      "name": "tokenOfOwnerByIndex",
      "outputs": [
        {
          "internalType": "uint256",
          "name": "",
          "type": "uint256"
        }
      ],
      "stateMutability": "view",
      "type": "function",
      "constant": true
    },
    {
      "inputs": [
        {
          "internalType": "uint256",
          "name": "tokenId",
          "type": "uint256"
        }
      ],
      "name": "tokenURI",
      "outputs": [
        {
          "internalType": "string",
          "name": "",
          "type": "string"
        }
      ],
      "stateMutability": "view",
      "type": "function",
      "constant": true
    },
    {
      "inputs": [],
      "name": "totalSupply",
      "outputs": [
        {
          "internalType": "uint256",
          "name": "",
          "type": "uint256"
        }
      ],
      "stateMutability": "view",
      "type": "function",
      "constant": true
    },
    {
      "inputs": [
        {
          "internalType": "address",
          "name": "from",
          "type": "address"
        },
        {
          "internalType": "address",
          "name": "to",
          "type": "address"
        },
        {
          "internalType": "uint256",
          "name": "tokenId",
          "type": "uint256"
        }
      ],
      "name": "transferFrom",
      "outputs": [],
      "stateMutability": "nonpayable",
      "type": "function"
    },
    {
      "inputs": [
        {
          "internalType": "address",
          "name": "newOwner",
          "type": "address"
        }
      ],
      "name": "transferOwnership",
      "outputs": [],
      "stateMutability": "nonpayable",
      "type": "function"
    },
    {
      "inputs": [
        {
          "internalType": "address",
          "name": "_address",
          "type": "address"
        }
      ],
      "name": "setStoreAddress",
      "outputs": [],
      "stateMutability": "nonpayable",
      "type": "function"
    },
    {
      "inputs": [
        {
          "internalType": "string",
          "name": "titre",
          "type": "string"
        },
        {
          "internalType": "string",
          "name": "genre",
          "type": "string"
        },
        {
          "internalType": "uint256",
          "name": "duree",
          "type": "uint256"
        }
      ],
      "name": "createMusic",
      "outputs": [],
      "stateMutability": "nonpayable",
      "type": "function"
    },
    {
      "inputs": [
        {
          "internalType": "uint256",
          "name": "MusicId",
          "type": "uint256"
        }
      ],
      "name": "setMusiclisten",
      "outputs": [],
      "stateMutability": "nonpayable",
      "type": "function"
    },
    {
      "inputs": [
        {
          "internalType": "uint256",
          "name": "id",
          "type": "uint256"
        }
      ],
      "name": "getMusicTitre",
      "outputs": [
        {
          "internalType": "string",
          "name": "",
          "type": "string"
        }
      ],
      "stateMutability": "view",
      "type": "function",
      "constant": true
    },
    {
      "inputs": [
        {
          "internalType": "uint256",
          "name": "id",
          "type": "uint256"
        }
      ],
      "name": "getMusicListens",
      "outputs": [
        {
          "internalType": "uint256",
          "name": "listens",
          "type": "uint256"
        }
      ],
      "stateMutability": "view",
      "type": "function",
      "constant": true
    },
    {
      "inputs": [
        {
          "internalType": "uint256",
          "name": "id",
          "type": "uint256"
        }
      ],
      "name": "getMusicCreator",
      "outputs": [
        {
          "internalType": "address",
          "name": "creator",
          "type": "address"
        }
      ],
      "stateMutability": "view",
      "type": "function",
      "constant": true
    },
    {
      "inputs": [],
      "name": "getStoreAddress",
      "outputs": [
        {
          "internalType": "address",
          "name": "",
          "type": "address"
        }
      ],
      "stateMutability": "view",
      "type": "function",
      "constant": true
    },
    {
      "inputs": [],
      "name": "isMusicToken",
      "outputs": [
        {
          "internalType": "bool",
          "name": "",
          "type": "bool"
        }
      ],
      "stateMutability": "pure",
      "type": "function",
      "constant": true
    }
  ],
  "bytecode": "0x60806040523480156200001157600080fd5b506040518060400160405280601081526020017f546f6b656e697a6564204d7573696373000000000000000000000000000000008152506040518060400160405280600281526020017f544d000000000000000000000000000000000000000000000000000000000000815250620000966301ffc9a760e01b620001d160201b60201c565b8160069080519060200190620000ae929190620002e2565b508060079080519060200190620000c7929190620002e2565b50620000e06380ac58cd60e01b620001d160201b60201c565b620000f8635b5e139f60e01b620001d160201b60201c565b6200011063780e9d6360e01b620001d160201b60201c565b5050600062000124620002da60201b60201c565b905080600a60006101000a81548173ffffffffffffffffffffffffffffffffffffffff021916908373ffffffffffffffffffffffffffffffffffffffff1602179055508073ffffffffffffffffffffffffffffffffffffffff16600073ffffffffffffffffffffffffffffffffffffffff167f8be0079c531659141344cd1fd0a4f28419497f9722a3daafe3b4186f6b6457e060405160405180910390a3506000600c8190555062000388565b63ffffffff60e01b817bffffffffffffffffffffffffffffffffffffffffffffffffffffffff191614156200026e576040517f08c379a000000000000000000000000000000000000000000000000000000000815260040180806020018281038252601c8152602001807f4552433136353a20696e76616c696420696e746572666163652069640000000081525060200191505060405180910390fd5b6001600080837bffffffffffffffffffffffffffffffffffffffffffffffffffffffff19167bffffffffffffffffffffffffffffffffffffffffffffffffffffffff1916815260200190815260200160002060006101000a81548160ff02191690831515021790555050565b600033905090565b828054600181600116156101000203166002900490600052602060002090601f016020900481019282601f106200032557805160ff191683800117855562000356565b8280016001018555821562000356579182015b828111156200035557825182559160200191906001019062000338565b5b50905062000365919062000369565b5090565b5b80821115620003845760008160009055506001016200036a565b5090565b61374a80620003986000396000f3fe608060405234801561001057600080fd5b50600436106101c45760003560e01c806370a08231116100f9578063b88d4fde11610097578063f0f0211a11610071578063f0f0211a14610af4578063f2fde38b14610c50578063f8edc51b14610c94578063ffc2886e14610cd6576101c4565b8063b88d4fde146108ce578063c87b56dd146109d3578063e985e9c514610a7a576101c4565b806393b5bbe7116100d357806393b5bbe7146107a757806395d89b41146107c7578063a22cb4651461084a578063b07ed3a91461089a576101c4565b806370a0823114610711578063715018a6146107695780638da5cb5b14610773576101c4565b80633c9eac9c11610166578063624e8a5011610140578063624e8a501461059a5780636352211e146105f25780636559e59a1461064a5780636c0360eb1461068e576101c4565b80633c9eac9c1461044357806342842e0e146104ea5780634f6ccce714610558576101c4565b8063095ea7b3116101a2578063095ea7b31461030757806318160ddd1461035557806323b872dd146103735780632f745c59146103e1576101c4565b806301ffc9a7146101c957806306fdde031461022c578063081812fc146102af575b600080fd5b610214600480360360208110156101df57600080fd5b8101908080357bffffffffffffffffffffffffffffffffffffffffffffffffffffffff19169060200190929190505050610d04565b60405180821515815260200191505060405180910390f35b610234610d6b565b6040518080602001828103825283818151815260200191508051906020019080838360005b83811015610274578082015181840152602081019050610259565b50505050905090810190601f1680156102a15780820380516001836020036101000a031916815260200191505b509250505060405180910390f35b6102db600480360360208110156102c557600080fd5b8101908080359060200190929190505050610e0d565b604051808273ffffffffffffffffffffffffffffffffffffffff16815260200191505060405180910390f35b6103536004803603604081101561031d57600080fd5b81019080803573ffffffffffffffffffffffffffffffffffffffff16906020019092919080359060200190929190505050610ea8565b005b61035d610fec565b6040518082815260200191505060405180910390f35b6103df6004803603606081101561038957600080fd5b81019080803573ffffffffffffffffffffffffffffffffffffffff169060200190929190803573ffffffffffffffffffffffffffffffffffffffff16906020019092919080359060200190929190505050610ffd565b005b61042d600480360360408110156103f757600080fd5b81019080803573ffffffffffffffffffffffffffffffffffffffff16906020019092919080359060200190929190505050611073565b6040518082815260200191505060405180910390f35b61046f6004803603602081101561045957600080fd5b81019080803590602001909291905050506110ce565b6040518080602001828103825283818151815260200191508051906020019080838360005b838110156104af578082015181840152602081019050610494565b50505050905090810190601f1680156104dc5780820380516001836020036101000a031916815260200191505b509250505060405180910390f35b6105566004803603606081101561050057600080fd5b81019080803573ffffffffffffffffffffffffffffffffffffffff169060200190929190803573ffffffffffffffffffffffffffffffffffffffff16906020019092919080359060200190929190505050611186565b005b6105846004803603602081101561056e57600080fd5b81019080803590602001909291905050506111a6565b6040518082815260200191505060405180910390f35b6105c6600480360360208110156105b057600080fd5b81019080803590602001909291905050506111c9565b604051808273ffffffffffffffffffffffffffffffffffffffff16815260200191505060405180910390f35b61061e6004803603602081101561060857600080fd5b8101908080359060200190929190505050611209565b604051808273ffffffffffffffffffffffffffffffffffffffff16815260200191505060405180910390f35b61068c6004803603602081101561066057600080fd5b81019080803573ffffffffffffffffffffffffffffffffffffffff169060200190929190505050611240565b005b61069661134e565b6040518080602001828103825283818151815260200191508051906020019080838360005b838110156106d65780820151818401526020810190506106bb565b50505050905090810190601f1680156107035780820380516001836020036101000a031916815260200191505b509250505060405180910390f35b6107536004803603602081101561072757600080fd5b81019080803573ffffffffffffffffffffffffffffffffffffffff1690602001909291905050506113f0565b6040518082815260200191505060405180910390f35b6107716114c5565b005b61077b611650565b604051808273ffffffffffffffffffffffffffffffffffffffff16815260200191505060405180910390f35b6107af61167a565b60405180821515815260200191505060405180910390f35b6107cf611683565b6040518080602001828103825283818151815260200191508051906020019080838360005b8381101561080f5780820151818401526020810190506107f4565b50505050905090810190601f16801561083c5780820380516001836020036101000a031916815260200191505b509250505060405180910390f35b6108986004803603604081101561086057600080fd5b81019080803573ffffffffffffffffffffffffffffffffffffffff169060200190929190803515159060200190929190505050611725565b005b6108a26118db565b604051808273ffffffffffffffffffffffffffffffffffffffff16815260200191505060405180910390f35b6109d1600480360360808110156108e457600080fd5b81019080803573ffffffffffffffffffffffffffffffffffffffff169060200190929190803573ffffffffffffffffffffffffffffffffffffffff169060200190929190803590602001909291908035906020019064010000000081111561094b57600080fd5b82018360208201111561095d57600080fd5b8035906020019184600183028401116401000000008311171561097f57600080fd5b91908080601f016020809104026020016040519081016040528093929190818152602001838380828437600081840152601f19601f820116905080830192505050505050509192919290505050611905565b005b6109ff600480360360208110156109e957600080fd5b810190808035906020019092919050505061197d565b6040518080602001828103825283818151815260200191508051906020019080838360005b83811015610a3f578082015181840152602081019050610a24565b50505050905090810190601f168015610a6c5780820380516001836020036101000a031916815260200191505b509250505060405180910390f35b610adc60048036036040811015610a9057600080fd5b81019080803573ffffffffffffffffffffffffffffffffffffffff169060200190929190803573ffffffffffffffffffffffffffffffffffffffff169060200190929190505050611c66565b60405180821515815260200191505060405180910390f35b610c4e60048036036060811015610b0a57600080fd5b8101908080359060200190640100000000811115610b2757600080fd5b820183602082011115610b3957600080fd5b80359060200191846001830284011164010000000083111715610b5b57600080fd5b91908080601f016020809104026020016040519081016040528093929190818152602001838380828437600081840152601f19601f82011690508083019250505050505050919291929080359060200190640100000000811115610bbe57600080fd5b820183602082011115610bd057600080fd5b80359060200191846001830284011164010000000083111715610bf257600080fd5b91908080601f016020809104026020016040519081016040528093929190818152602001838380828437600081840152601f19601f82011690508083019250505050505050919291929080359060200190929190505050611cfa565b005b610c9260048036036020811015610c6657600080fd5b81019080803573ffffffffffffffffffffffffffffffffffffffff169060200190929190505050611d0a565b005b610cc060048036036020811015610caa57600080fd5b8101908080359060200190929190505050611f1a565b6040518082815260200191505060405180910390f35b610d0260048036036020811015610cec57600080fd5b8101908080359060200190929190505050611f3a565b005b6000806000837bffffffffffffffffffffffffffffffffffffffffffffffffffffffff19167bffffffffffffffffffffffffffffffffffffffffffffffffffffffff1916815260200190815260200160002060009054906101000a900460ff169050919050565b606060068054600181600116156101000203166002900480601f016020809104026020016040519081016040528092919081815260200182805460018160011615610100020316600290048015610e035780601f10610dd857610100808354040283529160200191610e03565b820191906000526020600020905b815481529060010190602001808311610de657829003601f168201915b5050505050905090565b6000610e188261202d565b610e6d576040517f08c379a000000000000000000000000000000000000000000000000000000000815260040180806020018281038252602c81526020018061363f602c913960400191505060405180910390fd5b6004600083815260200190815260200160002060009054906101000a900473ffffffffffffffffffffffffffffffffffffffff169050919050565b6000610eb382611209565b90508073ffffffffffffffffffffffffffffffffffffffff168373ffffffffffffffffffffffffffffffffffffffff161415610f3a576040517f08c379a00000000000000000000000000000000000000000000000000000000081526004018080602001828103825260218152602001806136c36021913960400191505060405180910390fd5b8073ffffffffffffffffffffffffffffffffffffffff16610f5961204a565b73ffffffffffffffffffffffffffffffffffffffff161480610f885750610f8781610f8261204a565b611c66565b5b610fdd576040517f08c379a00000000000000000000000000000000000000000000000000000000081526004018080602001828103825260388152602001806135926038913960400191505060405180910390fd5b610fe78383612052565b505050565b6000610ff8600261210b565b905090565b61100e61100861204a565b82612120565b611063576040517f08c379a00000000000000000000000000000000000000000000000000000000081526004018080602001828103825260318152602001806136e46031913960400191505060405180910390fd5b61106e838383612214565b505050565b60006110c682600160008673ffffffffffffffffffffffffffffffffffffffff1673ffffffffffffffffffffffffffffffffffffffff16815260200190815260200160002061245790919063ffffffff16565b905092915050565b6060600d60008381526020019081526020016000206000018054600181600116156101000203166002900480601f01602080910402602001604051908101604052809291908181526020018280546001816001161561010002031660029004801561117a5780601f1061114f5761010080835404028352916020019161117a565b820191906000526020600020905b81548152906001019060200180831161115d57829003601f168201915b50505050509050919050565b6111a183838360405180602001604052806000815250611905565b505050565b6000806111bd83600261247190919063ffffffff16565b50905080915050919050565b6000600d600083815260200190815260200160002060040160009054906101000a900473ffffffffffffffffffffffffffffffffffffffff169050919050565b6000611239826040518060600160405280602981526020016135f460299139600261249d9092919063ffffffff16565b9050919050565b61124861204a565b73ffffffffffffffffffffffffffffffffffffffff16600a60009054906101000a900473ffffffffffffffffffffffffffffffffffffffff1673ffffffffffffffffffffffffffffffffffffffff161461130a576040517f08c379a00000000000000000000000000000000000000000000000000000000081526004018080602001828103825260208152602001807f4f776e61626c653a2063616c6c6572206973206e6f7420746865206f776e657281525060200191505060405180910390fd5b80600b60006101000a81548173ffffffffffffffffffffffffffffffffffffffff021916908373ffffffffffffffffffffffffffffffffffffffff16021790555050565b606060098054600181600116156101000203166002900480601f0160208091040260200160405190810160405280929190818152602001828054600181600116156101000203166002900480156113e65780601f106113bb576101008083540402835291602001916113e6565b820191906000526020600020905b8154815290600101906020018083116113c957829003601f168201915b5050505050905090565b60008073ffffffffffffffffffffffffffffffffffffffff168273ffffffffffffffffffffffffffffffffffffffff161415611477576040517f08c379a000000000000000000000000000000000000000000000000000000000815260040180806020018281038252602a8152602001806135ca602a913960400191505060405180910390fd5b6114be600160008473ffffffffffffffffffffffffffffffffffffffff1673ffffffffffffffffffffffffffffffffffffffff1681526020019081526020016000206124bc565b9050919050565b6114cd61204a565b73ffffffffffffffffffffffffffffffffffffffff16600a60009054906101000a900473ffffffffffffffffffffffffffffffffffffffff1673ffffffffffffffffffffffffffffffffffffffff161461158f576040517f08c379a00000000000000000000000000000000000000000000000000000000081526004018080602001828103825260208152602001807f4f776e61626c653a2063616c6c6572206973206e6f7420746865206f776e657281525060200191505060405180910390fd5b600073ffffffffffffffffffffffffffffffffffffffff16600a60009054906101000a900473ffffffffffffffffffffffffffffffffffffffff1673ffffffffffffffffffffffffffffffffffffffff167f8be0079c531659141344cd1fd0a4f28419497f9722a3daafe3b4186f6b6457e060405160405180910390a36000600a60006101000a81548173ffffffffffffffffffffffffffffffffffffffff021916908373ffffffffffffffffffffffffffffffffffffffff160217905550565b6000600a60009054906101000a900473ffffffffffffffffffffffffffffffffffffffff16905090565b60006001905090565b606060078054600181600116156101000203166002900480601f01602080910402602001604051908101604052809291908181526020018280546001816001161561010002031660029004801561171b5780601f106116f05761010080835404028352916020019161171b565b820191906000526020600020905b8154815290600101906020018083116116fe57829003601f168201915b5050505050905090565b61172d61204a565b73ffffffffffffffffffffffffffffffffffffffff168273ffffffffffffffffffffffffffffffffffffffff1614156117ce576040517f08c379a00000000000000000000000000000000000000000000000000000000081526004018080602001828103825260198152602001807f4552433732313a20617070726f766520746f2063616c6c65720000000000000081525060200191505060405180910390fd5b80600560006117db61204a565b73ffffffffffffffffffffffffffffffffffffffff1673ffffffffffffffffffffffffffffffffffffffff16815260200190815260200160002060008473ffffffffffffffffffffffffffffffffffffffff1673ffffffffffffffffffffffffffffffffffffffff16815260200190815260200160002060006101000a81548160ff0219169083151502179055508173ffffffffffffffffffffffffffffffffffffffff1661188861204a565b73ffffffffffffffffffffffffffffffffffffffff167f17307eab39ab6107e8899845ad3d59bd9653f200f220920489ca2b5937696c318360405180821515815260200191505060405180910390a35050565b6000600b60009054906101000a900473ffffffffffffffffffffffffffffffffffffffff16905090565b61191661191061204a565b83612120565b61196b576040517f08c379a00000000000000000000000000000000000000000000000000000000081526004018080602001828103825260318152602001806136e46031913960400191505060405180910390fd5b611977848484846124d1565b50505050565b60606119888261202d565b6119dd576040517f08c379a000000000000000000000000000000000000000000000000000000000815260040180806020018281038252602f815260200180613694602f913960400191505060405180910390fd5b6060600860008481526020019081526020016000208054600181600116156101000203166002900480601f016020809104026020016040519081016040528092919081815260200182805460018160011615610100020316600290048015611a865780601f10611a5b57610100808354040283529160200191611a86565b820191906000526020600020905b815481529060010190602001808311611a6957829003601f168201915b50505050509050600060098054600181600116156101000203166002900490501415611ab55780915050611c61565b600081511115611b8e576009816040516020018083805460018160011615610100020316600290048015611b205780601f10611afe576101008083540402835291820191611b20565b820191906000526020600020905b815481529060010190602001808311611b0c575b505082805190602001908083835b60208310611b515780518252602082019150602081019050602083039250611b2e565b6001836020036101000a03801982511681845116808217855250505050505090500192505050604051602081830303815290604052915050611c61565b6009611b9984612543565b6040516020018083805460018160011615610100020316600290048015611bf75780601f10611bd5576101008083540402835291820191611bf7565b820191906000526020600020905b815481529060010190602001808311611be3575b505082805190602001908083835b60208310611c285780518252602082019150602081019050602083039250611c05565b6001836020036101000a038019825116818451168082178552505050505050905001925050506040516020818303038152906040529150505b919050565b6000600560008473ffffffffffffffffffffffffffffffffffffffff1673ffffffffffffffffffffffffffffffffffffffff16815260200190815260200160002060008373ffffffffffffffffffffffffffffffffffffffff1673ffffffffffffffffffffffffffffffffffffffff16815260200190815260200160002060009054906101000a900460ff16905092915050565b611d0583838361268a565b505050565b611d1261204a565b73ffffffffffffffffffffffffffffffffffffffff16600a60009054906101000a900473ffffffffffffffffffffffffffffffffffffffff1673ffffffffffffffffffffffffffffffffffffffff1614611dd4576040517f08c379a00000000000000000000000000000000000000000000000000000000081526004018080602001828103825260208152602001807f4f776e61626c653a2063616c6c6572206973206e6f7420746865206f776e657281525060200191505060405180910390fd5b600073ffffffffffffffffffffffffffffffffffffffff168173ffffffffffffffffffffffffffffffffffffffff161415611e5a576040517f08c379a00000000000000000000000000000000000000000000000000000000081526004018080602001828103825260268152602001806134f66026913960400191505060405180910390fd5b8073ffffffffffffffffffffffffffffffffffffffff16600a60009054906101000a900473ffffffffffffffffffffffffffffffffffffffff1673ffffffffffffffffffffffffffffffffffffffff167f8be0079c531659141344cd1fd0a4f28419497f9722a3daafe3b4186f6b6457e060405160405180910390a380600a60006101000a81548173ffffffffffffffffffffffffffffffffffffffff021916908373ffffffffffffffffffffffffffffffffffffffff16021790555050565b6000600d6000838152602001908152602001600020600301549050919050565b803373ffffffffffffffffffffffffffffffffffffffff16611f5b82611209565b73ffffffffffffffffffffffffffffffffffffffff1614611f7b57600080fd5b600073ffffffffffffffffffffffffffffffffffffffff16600b60009054906101000a900473ffffffffffffffffffffffffffffffffffffffff1673ffffffffffffffffffffffffffffffffffffffff161415611fd757600080fd5b612004600b60009054906101000a900473ffffffffffffffffffffffffffffffffffffffff166001611725565b6001600d6000848152602001908152602001600020600301600082825401925050819055505050565b600061204382600261279290919063ffffffff16565b9050919050565b600033905090565b816004600083815260200190815260200160002060006101000a81548173ffffffffffffffffffffffffffffffffffffffff021916908373ffffffffffffffffffffffffffffffffffffffff160217905550808273ffffffffffffffffffffffffffffffffffffffff166120c583611209565b73ffffffffffffffffffffffffffffffffffffffff167f8c5be1e5ebec7d5bd14f71427d1e84f3dd0314c0f7b2291e5b200ac8c7c3b92560405160405180910390a45050565b6000612119826000016127ac565b9050919050565b600061212b8261202d565b612180576040517f08c379a000000000000000000000000000000000000000000000000000000000815260040180806020018281038252602c815260200180613566602c913960400191505060405180910390fd5b600061218b83611209565b90508073ffffffffffffffffffffffffffffffffffffffff168473ffffffffffffffffffffffffffffffffffffffff1614806121fa57508373ffffffffffffffffffffffffffffffffffffffff166121e284610e0d565b73ffffffffffffffffffffffffffffffffffffffff16145b8061220b575061220a8185611c66565b5b91505092915050565b8273ffffffffffffffffffffffffffffffffffffffff1661223482611209565b73ffffffffffffffffffffffffffffffffffffffff16146122a0576040517f08c379a000000000000000000000000000000000000000000000000000000000815260040180806020018281038252602981526020018061366b6029913960400191505060405180910390fd5b600073ffffffffffffffffffffffffffffffffffffffff168273ffffffffffffffffffffffffffffffffffffffff161415612326576040517f08c379a000000000000000000000000000000000000000000000000000000000815260040180806020018281038252602481526020018061351c6024913960400191505060405180910390fd5b6123318383836127bd565b61233c600082612052565b61238d81600160008673ffffffffffffffffffffffffffffffffffffffff1673ffffffffffffffffffffffffffffffffffffffff1681526020019081526020016000206127c290919063ffffffff16565b506123df81600160008573ffffffffffffffffffffffffffffffffffffffff1673ffffffffffffffffffffffffffffffffffffffff1681526020019081526020016000206127dc90919063ffffffff16565b506123f6818360026127f69092919063ffffffff16565b50808273ffffffffffffffffffffffffffffffffffffffff168473ffffffffffffffffffffffffffffffffffffffff167fddf252ad1be2c89b69c2b068fc378daa952ba7f163c4a11628f55a4df523b3ef60405160405180910390a4505050565b6000612466836000018361282b565b60001c905092915050565b60008060008061248486600001866128ae565b915091508160001c8160001c9350935050509250929050565b60006124b0846000018460001b84612947565b60001c90509392505050565b60006124ca82600001612a3d565b9050919050565b6124dc848484612214565b6124e884848484612a4e565b61253d576040517f08c379a00000000000000000000000000000000000000000000000000000000081526004018080602001828103825260328152602001806134c46032913960400191505060405180910390fd5b50505050565b6060600082141561258b576040518060400160405280600181526020017f30000000000000000000000000000000000000000000000000000000000000008152509050612685565b600082905060005b600082146125b5578080600101915050600a82816125ad57fe5b049150612593565b60608167ffffffffffffffff811180156125ce57600080fd5b506040519080825280601f01601f1916602001820160405280156126015781602001600182028036833780820191505090505b50905060006001830390508593505b6000841461267d57600a848161262257fe5b0660300160f81b8282806001900393508151811061263c57fe5b60200101907effffffffffffffffffffffffffffffffffffffffffffffffffffffffffffff1916908160001a905350600a848161267557fe5b049350612610565b819450505050505b919050565b6001600c5401600c819055506040518060a00160405280848152602001838152602001828152602001600081526020013373ffffffffffffffffffffffffffffffffffffffff16815250600d6000600c5481526020019081526020016000206000820151816000019080519060200190612705929190613404565b506020820151816001019080519060200190612722929190613404565b50604082015181600201556060820151816003015560808201518160040160006101000a81548173ffffffffffffffffffffffffffffffffffffffff021916908373ffffffffffffffffffffffffffffffffffffffff16021790555090505061278d33600c54612c67565b505050565b60006127a4836000018360001b612c85565b905092915050565b600081600001805490509050919050565b505050565b60006127d4836000018360001b612ca8565b905092915050565b60006127ee836000018360001b612d90565b905092915050565b6000612822846000018460001b8473ffffffffffffffffffffffffffffffffffffffff1660001b612e00565b90509392505050565b60008183600001805490501161288c576040517f08c379a00000000000000000000000000000000000000000000000000000000081526004018080602001828103825260228152602001806134a26022913960400191505060405180910390fd5b82600001828154811061289b57fe5b9060005260206000200154905092915050565b60008082846000018054905011612910576040517f08c379a000000000000000000000000000000000000000000000000000000000815260040180806020018281038252602281526020018061361d6022913960400191505060405180910390fd5b600084600001848154811061292157fe5b906000526020600020906002020190508060000154816001015492509250509250929050565b60008084600101600085815260200190815260200160002054905060008114158390612a0e576040517f08c379a00000000000000000000000000000000000000000000000000000000081526004018080602001828103825283818151815260200191508051906020019080838360005b838110156129d35780820151818401526020810190506129b8565b50505050905090810190601f168015612a005780820380516001836020036101000a031916815260200191505b509250505060405180910390fd5b50846000016001820381548110612a2157fe5b9060005260206000209060020201600101549150509392505050565b600081600001805490509050919050565b6000612a6f8473ffffffffffffffffffffffffffffffffffffffff16612edc565b612a7c5760019050612c5f565b6060612be663150b7a0260e01b612a9161204a565b888787604051602401808573ffffffffffffffffffffffffffffffffffffffff1681526020018473ffffffffffffffffffffffffffffffffffffffff16815260200183815260200180602001828103825283818151815260200191508051906020019080838360005b83811015612b15578082015181840152602081019050612afa565b50505050905090810190601f168015612b425780820380516001836020036101000a031916815260200191505b5095505050505050604051602081830303815290604052907bffffffffffffffffffffffffffffffffffffffffffffffffffffffff19166020820180517bffffffffffffffffffffffffffffffffffffffffffffffffffffffff83818316178352505050506040518060600160405280603281526020016134c4603291398773ffffffffffffffffffffffffffffffffffffffff16612eef9092919063ffffffff16565b90506000818060200190516020811015612bff57600080fd5b8101908080519060200190929190505050905063150b7a0260e01b7bffffffffffffffffffffffffffffffffffffffffffffffffffffffff1916817bffffffffffffffffffffffffffffffffffffffffffffffffffffffff191614925050505b949350505050565b612c81828260405180602001604052806000815250612f07565b5050565b600080836001016000848152602001908152602001600020541415905092915050565b60008083600101600084815260200190815260200160002054905060008114612d845760006001820390506000600186600001805490500390506000866000018281548110612cf357fe5b9060005260206000200154905080876000018481548110612d1057fe5b9060005260206000200181905550600183018760010160008381526020019081526020016000208190555086600001805480612d4857fe5b60019003818190600052602060002001600090559055866001016000878152602001908152602001600020600090556001945050505050612d8a565b60009150505b92915050565b6000612d9c8383612f78565b612df5578260000182908060018154018082558091505060019003906000526020600020016000909190919091505582600001805490508360010160008481526020019081526020016000208190555060019050612dfa565b600090505b92915050565b6000808460010160008581526020019081526020016000205490506000811415612ea757846000016040518060400160405280868152602001858152509080600181540180825580915050600190039060005260206000209060020201600090919091909150600082015181600001556020820151816001015550508460000180549050856001016000868152602001908152602001600020819055506001915050612ed5565b82856000016001830381548110612eba57fe5b90600052602060002090600202016001018190555060009150505b9392505050565b600080823b905060008111915050919050565b6060612efe8484600085612f9b565b90509392505050565b612f118383613144565b612f1e6000848484612a4e565b612f73576040517f08c379a00000000000000000000000000000000000000000000000000000000081526004018080602001828103825260328152602001806134c46032913960400191505060405180910390fd5b505050565b600080836001016000848152602001908152602001600020541415905092915050565b606082471015612ff6576040517f08c379a00000000000000000000000000000000000000000000000000000000081526004018080602001828103825260268152602001806135406026913960400191505060405180910390fd5b612fff85612edc565b613071576040517f08c379a000000000000000000000000000000000000000000000000000000000815260040180806020018281038252601d8152602001807f416464726573733a2063616c6c20746f206e6f6e2d636f6e747261637400000081525060200191505060405180910390fd5b600060608673ffffffffffffffffffffffffffffffffffffffff1685876040518082805190602001908083835b602083106130c1578051825260208201915060208101905060208303925061309e565b6001836020036101000a03801982511681845116808217855250505050505090500191505060006040518083038185875af1925050503d8060008114613123576040519150601f19603f3d011682016040523d82523d6000602084013e613128565b606091505b5091509150613138828286613338565b92505050949350505050565b600073ffffffffffffffffffffffffffffffffffffffff168273ffffffffffffffffffffffffffffffffffffffff1614156131e7576040517f08c379a00000000000000000000000000000000000000000000000000000000081526004018080602001828103825260208152602001807f4552433732313a206d696e7420746f20746865207a65726f206164647265737381525060200191505060405180910390fd5b6131f08161202d565b15613263576040517f08c379a000000000000000000000000000000000000000000000000000000000815260040180806020018281038252601c8152602001807f4552433732313a20746f6b656e20616c7265616479206d696e7465640000000081525060200191505060405180910390fd5b61326f600083836127bd565b6132c081600160008573ffffffffffffffffffffffffffffffffffffffff1673ffffffffffffffffffffffffffffffffffffffff1681526020019081526020016000206127dc90919063ffffffff16565b506132d7818360026127f69092919063ffffffff16565b50808273ffffffffffffffffffffffffffffffffffffffff16600073ffffffffffffffffffffffffffffffffffffffff167fddf252ad1be2c89b69c2b068fc378daa952ba7f163c4a11628f55a4df523b3ef60405160405180910390a45050565b60608315613348578290506133fd565b60008351111561335b5782518084602001fd5b816040517f08c379a00000000000000000000000000000000000000000000000000000000081526004018080602001828103825283818151815260200191508051906020019080838360005b838110156133c25780820151818401526020810190506133a7565b50505050905090810190601f1680156133ef5780820380516001836020036101000a031916815260200191505b509250505060405180910390fd5b9392505050565b828054600181600116156101000203166002900490600052602060002090601f016020900481019282601f1061344557805160ff1916838001178555613473565b82800160010185558215613473579182015b82811115613472578251825591602001919060010190613457565b5b5090506134809190613484565b5090565b5b8082111561349d576000816000905550600101613485565b509056fe456e756d657261626c655365743a20696e646578206f7574206f6620626f756e64734552433732313a207472616e7366657220746f206e6f6e20455243373231526563656976657220696d706c656d656e7465724f776e61626c653a206e6577206f776e657220697320746865207a65726f20616464726573734552433732313a207472616e7366657220746f20746865207a65726f2061646472657373416464726573733a20696e73756666696369656e742062616c616e636520666f722063616c6c4552433732313a206f70657261746f7220717565727920666f72206e6f6e6578697374656e7420746f6b656e4552433732313a20617070726f76652063616c6c6572206973206e6f74206f776e6572206e6f7220617070726f76656420666f7220616c6c4552433732313a2062616c616e636520717565727920666f7220746865207a65726f20616464726573734552433732313a206f776e657220717565727920666f72206e6f6e6578697374656e7420746f6b656e456e756d657261626c654d61703a20696e646578206f7574206f6620626f756e64734552433732313a20617070726f76656420717565727920666f72206e6f6e6578697374656e7420746f6b656e4552433732313a207472616e73666572206f6620746f6b656e2074686174206973206e6f74206f776e4552433732314d657461646174613a2055524920717565727920666f72206e6f6e6578697374656e7420746f6b656e4552433732313a20617070726f76616c20746f2063757272656e74206f776e65724552433732313a207472616e736665722063616c6c6572206973206e6f74206f776e6572206e6f7220617070726f766564a2646970667358221220a105d79f1292a3e1cb63d0f01cecc7f403d55731c092f17f47fc8055fa3a9aaa64736f6c63430007000033",
  "immutableReferences": {},
  "source": "// SPDX-License-Identifier: MIT\npragma solidity ^0.7.0;\n\nimport \"@openzeppelin/contracts/access/Ownable.sol\";\nimport \"@openzeppelin/contracts/token/ERC721/ERC721.sol\";\n\n/// @title Musictoken \n/// @notice Create tokenized (ERC721) versions of properties music\ncontract MusicToken is ERC721, Ownable {\n\n  address internal storeAddress;\n  uint newMusicId;\n\n  struct Music {\n    string titre;\n    string genre;\n    uint duree;\n    uint listens;\n    address creator;\n  }\n\n  mapping (uint => Music) idToMusic;\n\n  modifier onlyMusicOwner(uint _musicId) { require(ownerOf(_musicId) == msg.sender); _; }\n\n  /// @dev Contract constructor calls ERC721 constructor and pass the name and symbol parameters\n  constructor () public ERC721(\"Tokenized Musics\", \"TM\") \n  {\n    newMusicId = 0;\n  }\n  \n  /// @param _address Deployed Music Store contract address\n  function setStoreAddress(address _address) public onlyOwner {\n    storeAddress = _address;\n  }\n\n  // @notice Create a new ERC721 Tokenized Music\n  function createMusic(string memory titre, string memory genre, uint duree ) public {\n    _createMusic(titre,genre,duree);\n  }\n\n  /// @notice Create a new ERC721 Tokenized Music\n  function _createMusic(string memory _titre, string memory _genre,uint _duree) internal {\n    newMusicId = newMusicId+1;\n    idToMusic[newMusicId] = Music(_titre, _genre,_duree,0, msg.sender);\n    _safeMint(msg.sender, newMusicId);\n  }\n\n  // @notice Add a new listen\n  function setMusiclisten(uint MusicId) public onlyMusicOwner(MusicId) {\n    require(storeAddress != address(0));\n    setApprovalForAll(storeAddress, true);\n    idToMusic[MusicId].listens += 1;\n  }\n\n \n\n  /// @notice Returns the name of a Music\n  /// @param id The Id of the music/ERC721 \n  /// @return titre returns the titref the music\n  function getMusicTitre (uint id) external view returns (string memory) {\n    return idToMusic[id].titre;\n    \n  }\n\n  \n\n  // @notice Returns the listens of a Music\n  // @param id The Id of the product/ERC721 \n  // @return price returns the price of a product\n  function getMusicListens (uint id) external view returns (uint listens) {\n    return idToMusic[id].listens;\n  }\n\n  /// @notice Returns the creator of a music\n  /// @param id The Id of the musict/ERC721 \n  /// @return creator returns the creator of a music\n    function getMusicCreator (uint id) external view returns (address creator) {\n    return idToMusic[id].creator;\n  }\n  \n \n\n  /// @notice Returns the address registered for the marketplace\n  /// @return storeAddress returns the address registered for the marketplace\n  function getStoreAddress () external view returns (address) {\n    return storeAddress;\n  }\n\n  /// @notice Returns true\n  /// @dev This function is useful to confirm if the address passed to ProductStore.sol constructor is correct\n  function isMusicToken() external pure returns (bool) { return true; }\n}",
  "sourcePath": "/Users/irmenedocteur/Downloads/Listen Music Score _ final project consensys/contracts/MusicToken.sol",
  "compiler": {
    "name": "solc",
    "version": "0.7.0+commit.9e61f92b.Emscripten.clang"
  },
  "schemaVersion": "3.3.2",
  "updatedAt": "2021-01-03T23:58:32.295Z",
  "networkType": "ethereum",
  "devdoc": {
    "kind": "dev",
    "methods": {
      "approve(address,uint256)": {
        "details": "See {IERC721-approve}."
      },
      "balanceOf(address)": {
        "details": "See {IERC721-balanceOf}."
      },
      "baseURI()": {
        "details": "Returns the base URI set via {_setBaseURI}. This will be automatically added as a prefix in {tokenURI} to each token's URI, or to the token ID if no specific URI is set for that token ID."
      },
      "constructor": {
        "details": "Contract constructor calls ERC721 constructor and pass the name and symbol parameters"
      },
      "getApproved(uint256)": {
        "details": "See {IERC721-getApproved}."
      },
      "getMusicCreator(uint256)": {
        "params": {
          "id": "The Id of the musict/ERC721 "
        },
        "returns": {
          "creator": "returns the creator of a music"
        }
      },
      "getMusicTitre(uint256)": {
        "params": {
          "id": "The Id of the music/ERC721 "
        },
        "returns": {
          "_0": "titre returns the titref the music"
        }
      },
      "getStoreAddress()": {
        "returns": {
          "_0": "storeAddress returns the address registered for the marketplace"
        }
      },
      "isApprovedForAll(address,address)": {
        "details": "See {IERC721-isApprovedForAll}."
      },
      "isMusicToken()": {
        "details": "This function is useful to confirm if the address passed to ProductStore.sol constructor is correct"
      },
      "name()": {
        "details": "See {IERC721Metadata-name}."
      },
      "owner()": {
        "details": "Returns the address of the current owner."
      },
      "ownerOf(uint256)": {
        "details": "See {IERC721-ownerOf}."
      },
      "renounceOwnership()": {
        "details": "Leaves the contract without owner. It will not be possible to call `onlyOwner` functions anymore. Can only be called by the current owner. NOTE: Renouncing ownership will leave the contract without an owner, thereby removing any functionality that is only available to the owner."
      },
      "safeTransferFrom(address,address,uint256)": {
        "details": "See {IERC721-safeTransferFrom}."
      },
      "safeTransferFrom(address,address,uint256,bytes)": {
        "details": "See {IERC721-safeTransferFrom}."
      },
      "setApprovalForAll(address,bool)": {
        "details": "See {IERC721-setApprovalForAll}."
      },
      "setStoreAddress(address)": {
        "params": {
          "_address": "Deployed Music Store contract address"
        }
      },
      "supportsInterface(bytes4)": {
        "details": "See {IERC165-supportsInterface}. Time complexity O(1), guaranteed to always use less than 30 000 gas."
      },
      "symbol()": {
        "details": "See {IERC721Metadata-symbol}."
      },
      "tokenByIndex(uint256)": {
        "details": "See {IERC721Enumerable-tokenByIndex}."
      },
      "tokenOfOwnerByIndex(address,uint256)": {
        "details": "See {IERC721Enumerable-tokenOfOwnerByIndex}."
      },
      "tokenURI(uint256)": {
        "details": "See {IERC721Metadata-tokenURI}."
      },
      "totalSupply()": {
        "details": "See {IERC721Enumerable-totalSupply}."
      },
      "transferFrom(address,address,uint256)": {
        "details": "See {IERC721-transferFrom}."
      },
      "transferOwnership(address)": {
        "details": "Transfers ownership of the contract to a new account (`newOwner`). Can only be called by the current owner."
      }
    },
    "title": "Musictoken ",
    "version": 1
  },
  "userdoc": {
    "kind": "user",
    "methods": {
      "getMusicCreator(uint256)": {
        "notice": "Returns the creator of a music"
      },
      "getMusicTitre(uint256)": {
        "notice": "Returns the name of a Music"
      },
      "getStoreAddress()": {
        "notice": "Returns the address registered for the marketplace"
      },
      "isMusicToken()": {
        "notice": "Returns true"
      }
    },
    "notice": "Create tokenized (ERC721) versions of properties music",
    "version": 1
  }
}